:100000000C9434000C943E000C943E000C943E0082
:100010000C943E000C943E000C943E000C943E0068
:100020000C943E000C943E000C943E000C943E0058
:100030000C943E000C943E000C943E000C943E0048
:100040000C943E000C943E000C943E000C943E0038
:100050000C943E000C943E000C943E000C943E0028
:100060000C943E000C943E0011241FBECFEFD8E04C
:10007000DEBFCDBF0E9431010C9452010C940000F0
:10008000529853985A9A5B9A219A08950E94400078
:1000900040E951E04A9910C04B990EC0299A20E0DE
:1000A00030E0CA010197F1F72F5F3F4F83E0283E10
:1000B0003807B9F74A9BF0CF299820E030E0CA0111
:1000C0000197F1F72F5F3F4F83E0283E3807B9F7DC
:1000D000E1CF80E480937C0087E880937A000895E4
:1000E00090E490937C0097E890937A0090917C0044
:1000F000987F90937C0090917C008770892B8093EF
:100100007C0080917A00806480937A0080917A00EC
:1001100084FFFCCF80917A00806180937A002091E7
:10012000780030917900C9010895E0E8F0E080811D
:10013000836280838BE080938100229A08959C01E2
:10014000809180008362809380008BE080938100A7
:10015000229A293C3105A8F48DEC90E090938B0015
:1001600080938A0020E030E040E951E0CA01019725
:10017000F1F72F5F3F4F87E0203D3807B9F784E163
:100180000895C901895C90408C529140A8F48AE995
:1001900091E090938B0080938A0020E030E040E96A
:1001A00051E0CA010197F1F72F5F3F4F87E0203DF3
:1001B0003807B9F789E10895C901855F9140883C06
:1001C0009105A8F48CEC92E090938B0080938A00C8
:1001D00020E030E040E951E0CA010197F1F72F5FDC
:1001E0003F4F87E0203D3807B9F78DE108952D5B3B
:1001F000324024543140A8F48CEC93E090938B006F
:1002000080938A0020E030E040E951E0CA01019784
:10021000F1F72F5F3F4F87E0203D3807B9F781E2C4
:10022000089510928B0010928A0080E008958093C8
:10023000C4009093C50086E48093C20088ED80934B
:10024000C10008958091C00087FFFCCF8091C60057
:100250000895982F8091C00085FFFCCF9093C60031
:100260000895CF93DF9387E690E00E941701C0E9DD
:10027000D1E00E9446000E9446000197D1F780E03D
:100280000E9470000E949F000E94290120E030E03F
:10029000CE010197F1F72F5F3F4F87E0203D3807F0
:0802A000B9F7E7CFF894FFCF96
:00000001FF
